S0240000415050535F53494D504C455F4558414D504C455F4C4F52415F5032502E737265637A
S214000000C05200206D70000069700000697000002A
S21400001000000000000000000000000000000000DB
S21400002000000000000000000000000069700000F2
S2140000300000000000000000697000006970000009
S2140000406970000069700000F1510000AD4D0000BD
S2140000506970000069700000697000006970000037
S2140000607D5600008D5600009D560000AD560000DF
S214000070BD560000CD560000697000006970000093
S214000080697000003D6C00004D6C00006970000057
S214000090697000005D6C0000697000006970000007
S2140000A06970000069700000254D0000697000004E
S2140000B0000000000000000000000000000000003B
S2140000C0000000000000000000000000000000002B
S2140000D0000000000000000000000000000000001B
S2140000E0000000000000000000000000000000000B
S21400440010B5064C2378002B07D1054B002B02D0A5
S214004410044800E000BF0123237010BD9000002078
S21400442000000000E4750100084B10B5002B03D017
S2140044300749084800E000BF07480368002B00D182
S21400444010BD064B002BFBD09847F9E70000000094
S21400445094000020E4750100E475010000000000EF
S214004460F0B583B06B46DF1DD8710B4E0B4C0122A6
S214004470310020000A4DA84780225200094B5A619D
S214004480FF3A39002000084B9847002231002000F0
S214004490A84703B0F0BDC046A82000209C200020FE
S2140044A0295A0000002800401D5B000030B591B07E
S2140044B05B4B98475B4C1723237000236370A370F5
S2140044C002A901224A708B700A701720564B984733
S2140044D02278D1090023002904D15309DB0153496E
S2140044E08C4663441F2111400122100088409861C9
S2140044F002AC227000230393049323746374A274A3
S214004500E27423752332A354183A002108A8484BB6
S214004510984780235B02E360464BA362464BE36208
S214004520464B2363464B6363464BA361464D2200CE
S21400453046492800464B98472A68D369002BFCD189
S214004540136802210B43136001AC01236370002241
S214004550A270237021000820334DA84721000F20A9
S214004560A84700203B4B984736493B4B984783006B
S21400457018184000802212022C4B5A6100284AD09C
S214004580364B586000229A601900802252020B684F
S2140045901342FCD080221202244B9A612F4B5860A3
S2140045A000229A601900802252020B681342FCD047
S2140045B0802212021D4B9A61A820294CA0471F207A
S2140045C0A047D320A0470020A0474020A047A12016
S2140045D0A047C820A047DA20A0470220A047812095
S2140045E0A0478F20A047A420A047A620A047D520FC
S2140045F0A0478020A0478D20A0471420A047DB209E
S214004600A0474020A047D920A047F120A047AF20D0
S214004610A04711B030BD80221202044B9A61C7E752
S214004620B1460000A8200020555100000028004098
S214004630F14D0100030022000300170003003600BE
S2140046400300370040420F009C2000200004004377
S214004650DD5600006D6900007D1B010010E000E0E3
S21400466061440000F0B583B06B46DF1DD8710B4E79
S2140046700B4C0122310020000A4DA8478022520030
S214004680094B9A61FF3A39002000084B98470022F0
S21400469031002000A84703B0F0BDC046A820002087
S2140046A09C200020295A0000002800401D5B0000C6
S2140046B070B50020084B98470500084CFA21890081
S2140046C0A047074B186007492800A047064B18600C
S2140046D00522064B1A6070BD6D6900007D1B010047
S2140046E00000002040420F000400002010E000E020
S2140046F030B5084B1C68084A00258021490201385D
S21400470007D3002CFBD05460956013680B42FCD096
S214004710F5E730BD0400002010E000E030B5084B9F
S2140047201C68084A002580214902013807D3002C5E
S214004730FBD05460956013680B42FCD0F5E730BDA3
S2140047400000002010E000E0014B18607047C046F3
S214004750AC000020024B1B68C0011818425470477A
S214004760AC000020024B1B68C0011818405C704764
S214004770AC000020F8B5CE46474680B58418802C9D
S21400478003DD80225242121AD2B2002A37D0CD0858
S214004790EC00091B01278F403900FFB2012B19D00E
S2140047A0002B30D0022B2AD10138C6B29219D4B2CF
S2140047B0204B9946204B984621002800C847784051
S2140047C0C2B2002321002800C047013CE4B2B44234
S2140047D0F2D114E00138C6B29219D4B2154B9946FC
S2140047E0154B984621002800C8473843C2B200231C
S2140047F021002800C047013CE4B2B442F2D10CBC10
S21400480090469946F8BD0138C6B29219D4B2094B03
S2140048109946CF43084B984621002800C8473840A1
S214004820C2B2002321002800C047013CE4B2B442D3
S214004830F2D1E4E7994A000091490000F0B583B050
S2140048400090019208AA1778002B0DD00139CEB23D
S2140048509B19DCB2054D3B00019A21000098A84741
S214004860013CE4B2B442F6D103B0F0BD7547000097
S214004870F0B5DE4657464E464546E0B585B00400E0
S214004880884615009B465B7A5A46127A00210091AC
S21400489029004046284EB0475B461B78002B06D0C2
S2140048A005B03CBC90469946A246AB46F0BD5B467A
S2140048B01A7AD308520700D001335A46527A9246E3
S2140048C05A46977AE71B524657435F43BFB25B464A
S2140048D05B689C46674402954346039320E06BB2B0
S2140048E0002B0DDB0134E4B26D00EDB2A6420DD014
S2140048F04346E31A4A461A42F1D13D780137EEE7BD
S2140049000122029920000D4B9847EBE7029B0133EA
S214004910DBB202935346013BDBB29A46002BBFD074
S2140049205B461E7A002EF1D04644F6B2039C002564
S21400493007239946DCE7C0463D480000314A0000A0
S214004940F0B5C64600B582B0040090461F000D00C4
S214004950019109E07A7A01324244D3B29846019D29
S21400496001342378002B0DD020780A28F2D00D28A9
S214004970F6D03B0042462900044EB0473B7AED187D
S214004980EDB2EDE702B004BC9046F0BD7148000001
S214004990F8B504000F001500002B03D10D4B984707
S2140049A0A84215D02A00390020000B4B98470F2646
S2140049B03440B0202043094CA0477806400F10230F
S2140049C01843A04730003840A0472800044B9847BB
S2140049D0F8BDC0466547000055470000614400002A
S2140049E065460000F8B50D480D4B98470D4B9847A7
S2140049F040200D4B9847002500260C4F340001231D
S214004A00320021002800B8470134E4B2802CF6D1E9
S214004A100135EDB2042DF1D1F8BDC046B00000203E
S214004A2049470000AD440000614400009149000081
S214004A30F0B5C64600B50400150043B2002B01DBF6
S214004A401F2902D904BC9046F0BDCF08FB00C91A46
S214004A5001268E40F3B29846010038000C4B98476A
S214004A600200012D09D0002D0BD0022D0CD0002302
S214004A7021003800074CA047E4E743460343DAB278
S214004A80F5E7B043C2B2F2E743464340DAB2EEE798
S214004A90654700009149000010B5014B984710BDCE
S214004AA0654700000C4B1B68002B06D1EFF3108304
S214004AB0002B07D00022094B1A70074A13680133EF
S214004AC01360704772B6BFF35F8F0022044B1A70F4
S214004AD00132024B1A70F0E7B0020020B402002048
S214004AE014000020084B1A68013A1A601B68002B55
S214004AF009D1064B1B78002B05D00122044B1A70F7
S214004B00BFF35F8F62B67047B0020020B402002089
S214004B1014000020F0B5C64600B582B001AC0125F1
S214004B20657000239846A370257021001320124E4E
S214004B30B047124F80231B03BB6125702100122053
S214004B40B0478023DB02BB61257021000D20B047F3
S214004B5080239B017B61257021000920B0478023BC
S214004B609B007B6143462370657021001C20B04784
S214004B7002B004BC9046F0BD55510000002800402D
S214004B8001230370002343708370C37003710F22E8
S214004B9042718371C3710372704702681368022101
S214004BA00B43136070470323026853710268D37186
S214004BB00268136802218B431360704770B50400C7
S214004BC00D00D37803712160537843711379837194
S214004BD013789B029178C9020B43517809020B4364
S214004BE0D17889000B43117949010B4391798903E8
S214004BF0D07940030143107A00030143527912042E
S214004C00F020000302400A4313431E002B689B0754
S214004C1001D42E6070BD2000034B98472E60200004
S214004C20024B9847F6E7C046A74B00009B4B000098
S214004C3070B5054CE56980239B012B43E361012396
S214004C400B60024B984770BD00040040BD4B00004F
S214004C5070B54379012B05D0002B10D0022B0DD157
S214004C60082500E00625002310C99A1C9200066855
S214004C70B446624454600133AB42F5D370BD04259C
S214004C80F1E7FFFF10B50023026813720F4B42686E
S214004C9013400F4A93420AD00379032B0ED00C0020
S214004CA01034036804C99A638C42FAD110BD0368B5
S214004CB00A689A6303684A689A63F7E78379023B4F
S214004CC0012BECD803680A689A63EFE7FF00FF0041
S214004CD003000100002302681372104B4268134061
S214004CE00F4A93420AD00379032B0ED00A001032E3
S214004CF003689B6B08C18A42FAD1704703689B6BB6
S214004D000B6003689B6B4B60F7E78379023B012BD4
S214004D10ECD803689B6B0B60EFE7C046FF00FF0014
S214004D200300010010B50C4BDC79E4B2E30707D5AD
S214004D300A4B1B68002B0DD00121074AD1719847FA
S214004D40A30707D5054B1B68002B03D00221024A98
S214004D50D171984710BDC04600340042B80200200A
S214004D601723002A01D0180070478B00064A9B586C
S214004D70002B03D0834205D01D23F4E7890088501A
S214004D800023F0E70023EEE7AC20002017230029DD
S214004D9001D01800704700221F2800D8024A0123BD
S214004DA0834013610023F4E70024004070B500221E
S214004DB0104B1A70002310491F25104E0D4C0AE0A8
S214004DC00D4908E023780133DBB223700F2B10D88F
S214004DD000211F2BF4D92800184001228240486980
S214004DE01042EFD04A619B009B59002BEAD09847AF
S214004DF0E8E770BDAB20002000240040AC20002077
S214004E00064A137802210B43137001205368194297
S214004E10FCD153681842F9D17047C04600240040C0
S214004E20064A137802218B431370012053681942F7
S214004E30FCD153681842F9D17047C04600240040A0
S214004E4010B5124A516980239B000B435361104AE8
S214004E50137801210B431370013101205368194266
S214004E60FCD153681842F9D1094A137810210B4334
S214004E701370084B19004031002204C38B42FCD14A
S214004E800822054B1A60054B984710BD00040040E9
S214004E9000240040AC20002000E100E0014E0000AD
S214004EA00023036043600122027283720132C272E1
S214004EB043727047F0B583B005000C001C4B984752
S214004EC001A900234B70CB7023790B70237A8B706B
S214004ED02078184B984700211F2D00D81649072226
S214004EE02A409200E77AA37A002B01D008231F43BA
S214004EF0EB089B00CB18D8690F269640B043974026
S214004F003A000243DA61637A002B0BD18A690123E7
S214004F10AB40DB431B041B0C13408B61074B9847CD
S214004F2003B0F0BD8A690123AB4013438B61F5E7FC
S214004F30214E0000456B000000240040014E00009A
S214004F4030B50400254A1088538843438B420BD261
S214004F5080229201224BCB18934205D9214A182071
S214004F60214BCB1893420ED8204B5D688022D2028C
S214004F702A435A602022FF321A831B7DDB0703D4A4
S214004F801A4B5D60052030BD452C22D8A300184A78
S214004F90D3589F46154B1B8BDB0503D5134B5D6023
S214004FA01020F0E789084900104BD96103E0890812
S214004FB049000E4BD961A520000204430B4B1C8010
S214004FC0190001220B7D1342FCD0084B5D600020C7
S214004FD0D9E7064B5D601720D5E7C046C002002023
S214004FE000C07FFFFF1F00000000C0FF0040004120
S214004FF008670100F8B52F4B1C885B886343834223
S21400500007D22D4E18252D4BC318B34206D80126BD
S21400501000E00026631E1825184201D02800F8BDBF
S214005020013D9442FAD3264B1B7D123DDB07F5D596
S214005030244C234B1C801D0001242B7D2342FCD0D6
S2140050402024FF341E4B1C83002A2CD0012305008D
S2140050509D430023541EA44609E0CF187F783F02E4
S2140050603C432C8002339BB202359A4204D9CC5C76
S2140050706345F2DBA4B2F4E70E4B1B790025002B48
S214005080CCD13F2ACAD8002E06D100220100042027
S2140050900D4B98470500C1E7002201001C200A4B73
S2140050A098470500BAE7034B1B790025002BEAD08A
S2140050B0B4E7C046C0020020FF1F00000000C0FF8B
S2140050C00040004144A5FFFF414F000010B51B4AB9
S2140050D0138852885A43824207D2194C182219491B
S2140050E04118A14207D8012100E000219B00013BA6
S2140050F01822184201D0100010BD134B1B7D133A26
S214005100DB07F8D5104B2022FF321A8380084000B8
S214005110D86100290FD10D4A0B4B1A8019000122C5
S2140051200B7D1342FCD0084B1A8B1C200240501EED
S21400513082419200DFE7064AEEE7C046C002002042
S214005140FF1F00000000C0FF0040004102A5000055
S2140051501AA5000000B583B001AB80221A700A7849
S2140051605A704A789A708A78DA701900014B984714
S21400517003B000BD456B000003681869431E9841E4
S214005180C0B2704770B504000668084D2000A847F6
S2140051900028FBD12379002B04D00020012B00D15E
S2140051A0B06970BD308B80B2FBE7C0467951000015
S2140051B010B502680A2910D0072911D980235B0090
S2140051C00C00083CA340C024A40023401381C38ED7
S2140051D001228A409343C38610BD044B1381F6E731
S2140051E001248C40FF2323401381F0E70080FFFF5B
S2140051F0F8B5DE4657464E464546E0B52B4B1B688F
S2140052009A461E68DB8E5246928E1A409046B289A7
S214005210738913401AB2002A08DBFF271F402AD0E2
S214005220002401239946FE339B4614E043465B0563
S21400523007D41F4BB3813CBC90469946A246AB466A
S214005240F8BD53461B6B9847F3E75B461D40B58198
S2140052500134082CEFD023004D46A5402F42F4D051
S2140052604246224149461142EFD002339B00524645
S2140052709B589847E9E7DA050AD54346DB0503D489
S21400528080235B00B381D6E753469B6A9847F7E7CF
S2140052909B05D0D543469B0503D480239B00B38152
S2140052A0C9E75346DB6A9847F7E7C046EC2000207C
S2140052B00080FFFFF0B5DE4657464E464546E0B551
S2140052C087B08046049116001F00002200230021AC
S2140052D08B463F2401202100009601975C460394EC
S2140052E04446059413E02024641A0500E540A846C9
S2140052F014E0009C019D121BAB415C464D462C43BE
S214005300A346039C45462C430394013925D3202409
S21400531064420C19E7D40500A540A84604008C405A
S214005320A14692185B4114001D00059E4F463E4064
S214005330B446049E47463E40B246664657463E43FF
S21400534003D00600264332002B00009C019D9D42A0
S214005350DBD8CED19442D8D8CBE7039B5846190069
S21400536007B03CBC90469946A246AB46F0BD10B589
S214005370490840230024814202D2180010BD1C00B8
S214005380091A631C9BB28842F9D94023FF2CF4D833
S21400539014800023F1E7FFFFF0B583B00F0016007E
S2140053A008AA117804004C434022BC4202D91000DF
S2140053B003B0F0BD002B14D1020008000021194CE8
S2140053C0A04701003A0000230020174CA047002207
S2140053D00123121A8B41120C1B041A43328000223E
S2140053E0E5E70022012BF9D10A00002300210D4C2D
S2140053F0A04702000B0000920193380000210A4CDF
S214005400A047050080239B0140229842CFD8790F01
S214005410F800009A019BA047EA00821AD2B2520313
S2140054202A43DBE71D1F0100B552000010B582B00D
S21400543004000E4B1B78002B07D0002905D10B4B20
S2140054405B78834210D01D200CE001A90C7011205F
S214005450074B98471120074B9847044B5C70012276
S2140054601A70002002B010BD0020FBE7C802002022
S214005470496A0000D96900003C4B984232D00AD9EC
S2140054803B4B98424ED03B4B984255D03A4B9842B5
S21400549038D0002070478423DB0598420CD0374B69
S2140054A09842F6D1012917D0002957D0022915D0E5
S2140054B0032915D00020EDE7012907D000294BD09D
S2140054C0022905D0032905D00020E3E72C48E1E7B0
S2140054D02C48DFE72C48DDE72C48DBE72C48D9E7EB
S2140054E02C48D7E7012907D0002939D0022905D052
S2140054F0032905D00020CDE72748CBE72748C9E792
S2140055002748C7E7012907D000292BD0022905D054
S214005510032905D00020BDE72248BBE72248B9E7AB
S2140055202248B7E7022903D0032903D00020B1E7B9
S2140055301F48AFE71F48ADE7012907D0002913D061
S214005540022905D0032905D00020A3E71A48A1E7C1
S2140055501A489FE71A489DE71A489BE7032099E7F1
S214005560194897E7194895E7194893E70008004255
S2140055700010004200040043000C004200040042F9
S21400558003000500030006000300070003000100F7
S21400559003001E0003001F000300090003000A00AA
S2140055A003000B00030011000300120003001300A9
S2140055B003000E0003000F0003001700030018008E
S2140055C00300190003000400030008000300100095
S2140055D00300160030B587B00B4B6A4632CB32C29A
S2140055E032CB32C2009B83420BD001239A0069461D
S2140055F05258824206D00133062BF7D1002007B05E
S21400560030BD0023D8B2FAE7206801007047FFFFDC
S214005610F0B50A4B1B78002B0CD1094F094E0A4DEA
S2140056200024DE515A1914600433182BF9D10122D4
S214005630024B1A708000024BC150F0BDCA02002017
S214005640CC0200200D560000F020002000B583B0EC
S21400565008236A4613700133537001339370013385
S214005660D3700133137101335371034B98476B4664
S214005670185603B000BDC046D555000010B5024B05
S2140056801B680020984710BDCC02002010B5024BC6
S2140056905B680120984710BDCC02002010B5024B75
S2140056A09B680220984710BDCC02002010B5024B24
S2140056B0DB680320984710BDCC02002010B5024BD3
S2140056C01B690420984710BDCC02002010B5024B81
S2140056D05B690520984710BDCC020020F0B5D64681
S2140056E04F464646C0B58AB006000F00140031602B
S2140056F00B689B070AD40B680520DB0700D4AFE0D5
S2140057000AB01CBC90469946A246F0BD936A059323
S214005710D36A0693136B0793536B089300250AE02E
S2140057203800B64B98470EE00F231840814530D11D
S2140057300135042D31D0E9B2AB0002AA0C201218B4
S214005740D0580028ECD0431CF2D001040B0C99462C
S214005750000CC3B29C460023020605D463465B09D0
S214005760DB01A74A904643441F2260460240981831
S21400577040300078824680205146C907D6D5520868
S2140057809B1830331878C0B26346DB07CCD50009C7
S214005790CCE7002333601C20B2E71120994B9847D2
S2140057A022780025012A16D02178002927D13B68C7
S2140057B0E27F1204A07F02431C209A42A0D1A36974
S2140057C0A28B0430205C002801D040200243082031
S2140057D003431D4314E004AA0100A0698A4B9847BE
S2140057E003001720002B00D08AE73B7BDBB204AA1D
S2140057F0127805309A4200D082E70C35D4E70022B2
S2140058006368A0680343E06803432B43207C02439D
S214005810607C002801D080200343A07C002802D0B2
S214005820802080020243E07C002802D08020800096
S2140058300243207D002802D0802080010243386881
S21400584002252B43834203D0002333601C2057E7F6
S2140058507B689342F8D17171237CB37100204FE7C7
S21400586008006A4B9847052800D1BFE003001233B2
S2140058706749CD69012282402A43CA6109A92425C5
S214005880625D0A70DBB201931800624B984701987C
S214005890614B9847605D0021604B98472378012B49
S2140058A020D02378002B03D13B68082213433B60AB
S2140058B03368984604AB80221A7000225A70012181
S2140058C09970DA702378002B01D104AB9A70A36A22
S2140058D00593E36A0693236B0793636B089300278D
S2140058E005AD11E03B680C2213433B60D9E7404608
S2140058F0424B98470DE004A90870000CC0B2484B14
S21400590098470137042F07D0F9B2BB005859002832
S214005910EDD0431CEFD1F4E723787371237CB37189
S214005920A37CF371237D3372002202ABDA802378E6
S214005930012B14D02378002B29D1A069A28B4346D3
S2140059405B6AE17F0904A57F2943194343465962F0
S2140059502023E35C002B1CD040231A4319E0306858
S2140059602A4B98471230C0B2264B9847010002AB2C
S2140059709A1DA069244B984703001720002B00D0DF
S214005980BEE602AB06331B7842461373D2E700220C
S21400599000206368A1680B43E1680B430343217C46
S2140059A00A43617C002903D11E498978890701D5FD
S2140059B080210B43A17C002902D0802189020A4362
S2140059C0E17C002902D0802189000A43217D00293C
S2140059D002D0802189010A43414609680B434146AB
S2140059E00B604B681A434A60002089E6084A136A2F
S2140059F002210B431362182340E7C0467954000087
S214005A00002800406D6A00006F530000D555000066
S214005A1000040040496A0000D96900002D540000C7
S214005A20456B00000020004110B544791523012C79
S214005A3001D0180010BD047A0023002CF9D1002AEA
S214005A4058D04B78002B44D003681B7EDB0710D45D
S214005A500A78D1090023002904D15309DB012E4915
S214005A608C4663441F21114001228A409A61052317
S214005A70DFE70A78D4090023002C04D15309DB01A0
S214005A80254CA44663441F2414400122A2405A61B8
S214005A9003681A7ED20701D58A789A62C2790023F3
S214005AA0002AC6D102680421137E0B42FCD0117E68
S214005AB000234907BDD5538B5B0701D504235383C9
S214005AC08379012B02D0936A0023B2E7936A0023FE
S214005AD0AFE70A78D1090023002904D15309DB0176
S214005AE00D498C4663441F21114001228A405A61A9
S214005AF000239EE70A78D1090023002904D1530920
S214005B00DB0105498C4663441F21114001228A406F
S214005B109A6100238DE7C04600280040F0B5DE46B7
S214005B2057464E464546E0B583B01723002A07D1B0
S214005B30180003B03CBC90469946A246AB46F0BD62
S214005B404379002B03D103681C7EA4070AD493462E
S214005B50002401230225AC460235A846013A92B23B
S214005B608A4623E002241C76F1E7357E61460D4224
S214005B702ED1357E1D4200D1C2E00668357E1D421C
S214005B80FCD0671CBFB251460D5D8179012923D038
S214005B90ADB23C00377E1F4202D0ED05ED0DB5627A
S214005BA0551EADB2C679002E1DD12A00594DAA4207
S214005BB070D04579002DE0D10668357E1D42D4D1DF
S214005BC0554D377E1F42D0D1013D002DF9D1CCE78F
S214005BD0022333760233ABE70234A4B25146CF5DDC
S214005BE03F023D43D6E751464579002D37D14B4D10
S214005BF0019112E00234A4B24946019F795C090281
S214005C00009F0F431BE0013A92B20668377E41467A
S214005C100F421BD1013D002D18D0002AF5D0066892
S214005C20377E1F42F1D0671CB9B289460199095DDB
S214005C30009181790129DDD069460F884C46317E76
S214005C401942E0D0FF05FF0DB762DCE70199357E0B
S214005C5067463D4218D1357E4646354252D00668E4
S214005C60357E47463D42FBD0357E3D4207D0758B9C
S214005C703D4200D077838579012D09D0B56A5D460F
S214005C80013DADB2AB4669E70223337602334FE7F8
S214005C90B56AF4E74379012B0BD0002B34D1C279D7
S214005CA0002A00D144E704245B465D46002B19D148
S214005CB03EE7016802220B7E1342FCD0002337E742
S214005CC00B7E234222D00B7E234207D04B8B2342EF
S214005CD000D04C838379012B10D08B6A013DADB286
S214005CE0002D15D001680B7E2342E9D10A4B0A7EAF
S214005CF02242E5D1013B002BF9D1E1E78B6AEDE7C3
S214005D00122315E7122313E7002311E712230FE7E8
S214005D1000230DE7FFFF00001027000011270000FA
S214005D20F0B5DE4657464E464546E0B591B005000E
S214005D300C00160029600800C64B9847020005288C
S214005D400DD007001237030021680520C90709D5C2
S214005D5011B03CBC90469946A246AB46F0BD18270B
S214005D600123F1E7216817308907F1D4052A49D0C5
S214005D70B949C86901229A4013000343CB610FA9B1
S214005D802D239846F35C0B70FFB23800B34B984750
S214005D903800B34B98474346F05C0021B14B984718
S214005DA0F37A6B712423F35CAB712523F35CEB7100
S214005DB0F37E2B72337F6B722B6898461800A54BC8
S214005DC09847052826D0123000220E2306A98C46B6
S214005DD063441A80328A02928023DB019A4200D101
S214005DE0ABE019D9C023DB01029A9A4200D19FE0AA
S214005DF080231B029A4200D027E103230693002348
S214005E00079312E09449086A043A9A401300034341
S214005E100B62B4E71820D7E780239B019A4200D094
S214005E2013E1102306930F3B079333680593F3683B
S214005E30039373690493337E9B462623F35C9A464A
S214005E4073689946002B00D19FE080235B05994537
S214005E5004D12723F35C002B00D184E0737E002B53
S214005E6002D0B37E424693732A68029FD369002B02
S214005E70FCD10E3306AA944663441B88424693819F
S214005E80059B039A1343049A13434A4613431F433E
S214005E905B461B021F4353465B071F432723F35CE7
S214005EA0002B01D104331F43737E9B02327F5202C4
S214005EB01343727F120213432422B25C520413432C
S214005EC02522B25C12041343B17AF27A11431943C5
S214005ED03389FF2B7DD080225204174319432C238D
S214005EE0F35C002B03D1604B9B789B0701D5802386
S214005EF01F432A68D369002BFCD1434659602A68A1
S214005F00D369002BFCD143461F600EAB80221A706B
S214005F1000225A70DA709A70336B0A93736B0B9385
S214005F20B36B0C93F36B02930D9300270AAE5EE0FF
S214005F3008230693073B079377E733680593F368D0
S214005F40039373690493337E9B462623F35C9A4639
S214005F5073689946002B14D080235B05994500D1C1
S214005F6077E7002020E0336A1F00C0B23F4B984717
S214005F7001000E2206AB9C46624438003C4B984714
S214005F8012E008230693002307932723F35C002BD5
S214005F900ED0069B0093079B0E2206A98C466244F1
S214005FA0B16A306A334FB847002800D0D0E655E7CC
S214005FB0336A1F00C0B22D4B98470100069B009322
S214005FC0079B0E2206A8844662443800294FB8472D
S214005FD0EAE7F37E002B82D08023DB041F437EE7B4
S214005FE02000254B984707E00137042F0DD0F9B263
S214005FF0BB0098590028F3D0431CF5D00EA90870B2
S214006000000CC0B21D4B9847EEE70023EB602B61F7
S2140060106B61AB61EB612B62AB626B620022EB855E
S214006020AB853033EA540133EA540133EA54013382
S214006030EA542868074B984704001149114B9847C3
S214006040A400114BE550002082E61023069300239F
S2140060500793EAE6D555000000040040496A0000B0
S214006060D96900002D540000002000416D6A000030
S2140060706F5300009953000079540000456B0000F0
S2140060808162000011560000F0200020C2791C2317
S214006090002A01D118007047C28D92B2173B002A21
S2140060A0F8D10368DA69002AFCD1198502211A7E24
S2140060B00A42FCD00023EDE782791C23002A01D196
S2140060C018007047828D92B2173B002AF8D10268FA
S2140060D0107E4007F4D5D369002BFCD1538BDBB27E
S2140060E098061DD0980703D5022353831833E7E795
S2140060F0580703D5042353831A33E1E7D80703D59B
S214006100012353831233DBE7D80603D510235383CA
S2140061103233D5E79B0603D5202353832133CFE7BD
S214006120138D0B800023CBE7F0B5CE46474680B5EF
S21400613083B0050001911720002A04D103B00CBCDF
S21400614090469946F0BDEB790530002BF6D02C68CA
S214006150E369002BFCD1013A93B299460026012749
S2140061601F4B984611E0731C9BB2019A915D6A79A9
S214006170012A17D089B21E0028001A4B98474B46B2
S214006180013B9BB29946434513D0237E3B42EAD15E
S214006190134B227E3A42E6D1012B19D0013B002B4D
S2140061A0F7D1E0E70236B6B2019AD35C1B02194378
S2140061B0E2E7237E9B070DD4094B0221227E0A428A
S2140061C00AD1012B0AD0013B002BF7D10020B5E7FE
S2140061D01220B3E70020B1E70020AFE71220ADE7BA
S2140061E0FFFF00008D600000F0B5D64600B584B015
S2140061F0040001911720002A03D104B004BC924683
S214006200F0BDA3790530002BF7D02668013A93B28B
S2140062109A460025042719E0002302AAD380911D80
S2140062202000154B98470028E7D1691C89B202ABBD
S214006230DB88019A53556279012A14D00D00534623
S214006240013B9BB29A460D4B9A45D6D0337E3B42D5
S214006250E2D10A4B327E3A42DED1012B09D0013B15
S214006260002BF7D1D8E70235ADB21B0A019A53547A
S214006270E5E71220C1E7C046B9600000FFFF000056
S214006280F8B58000624BC5582C68E369002BFCD13A
S214006290237EA67D1E403023EB5C3122AF5C1F4080
S2140062A0F30722D5EB8D9BB2002B1CD0AA6A13787D
S2140062B0DBB2511CA962697901290ED09BB2DB05BD
S2140062C0DB0D2385EB8D013B9BB2EB85002B0CD1C0
S2140062D0013323750133A37507E0517809020B4398
S2140062E00232AA62EBE701232375B30706D5022321
S2140062F0237500223133EA54FB071AD4730765D599
S214006300AB8D9BB2002B5FD0638BDBB21A0714D425
S2140063103F221340002B34D09A0711D51A2232237D
S214006320EA54303B63837B0750D528006B69984757
S2140063304CE02800EB689847E0E737221340E9E78F
S2140063405A0705D51E223223EA542E3B6383EAE71A
S214006350DA0705D513223223EA54313B6383E2E79A
S214006360DA0605D542223223EA54223B6383DAE773
S21400637020221A42D7D021323223EA54123B6383BA
S214006380D1E7238DDB05DB0DDAB2696A0A706A6A2B
S214006390511C69626979012910D0AB8D013B9BB213
S2140063A0AB85002B12D10433237500222E33EA541A
S2140063B0BB070BD528002B69984707E01B0A5370CC
S2140063C06B6A01336B62E8E704232375F30604D592
S2140063D0102323752376FB060ED4B30604D520239C
S2140063E0237523763B070BD4330704D50823237580
S2140063F02376BB0608D4F8BD2800EB699847ECE77F
S2140064002800AB699847EFE72B6A28009847F2E721
S214006410F020002010B5082803D880001C4B1B581D
S2140064209F46002032E01B4B18692FE01A4B187D60
S2140064300007800F431C1948584327E0154B58693E
S21400644024E0144B1B6800209B071FD512498022AE
S2140064505200CB681342FCD00E4B1B685B0701D47E
S2140064600F4813E000200F4B98470A4B9B681B040D
S2140064701B0C58430AE02823074AD35C00209B07DE
S21400648004D5044BD86801E08020000210BDC04649
S21400649038680100E4020020000C004000093D00BE
S2140064A0006CDC026D6A000070B50B4C237D8578AD
S2140064B0467802780321114089000C2293430B434F
S2140064C00B3A3240920140218B431343ED017F2269
S2140064D013402B43237570BD000C0040F0B5D64624
S2140064E04F464646C0B5204B9A465B6945780178CC
S2140064F04C424C41A14681788C46C1788846467A03
S214006500077A847A40681949486101214846800024
S21400651004229343034340460840C000043293439A
S21400652003436046084000010832934303430F408C
S214006530BF01402083433B430E40F6014030834377
S2140065403343793805402D02094803402B43214048
S2140065500903084803400B43524653611CBC90464F
S2140065609946A246F0BDC04600100040E402002056
S214006570FFF8FFFFFFEFFFFF082803D88000294B36
S2140065801B589F4617204BE0274A137D02210B43DA
S2140065901375002044E0254A936902210B4393615A
S2140065A000203DE0204A138A02210B43138200207C
S2140065B036E01E4A536902210B43536100202FE048
S2140065C01B490B68022213430B60174B1A831900F2
S2140065D0FE32CB681342FCD0154A9168124B196202
S2140065E05268DA6100221A8319000132FF32CB6842
S2140065F01342FCD00E4B1B689BB20B4A1383002041
S2140066000EE0094928228B5C022003438B540800C5
S2140066103821263A435C1342FCD1002000E00020DB
S2140066207047C0465C680100000C00400010004047
S214006630E4020020082832D880001A4B1B589F46D8
S214006640194A137D02218B43137500207047174AA1
S214006650936902218B4393610020F7E7124A138A5D
S21400666002218B4313820020F0E7104A536902216F
S2140066708B4353610020E9E70D4B1A6802218A43D9
S2140066801A601B689BB2084A13830020DEE706499F
S21400669028228B5C022083438B540020D6E71720E9
S2140066A0D4E7C04680680100000C0040001000409F
S2140066B0E4020020F0B5D6464F464646C0B588B040
S2140066C080225200564B9A60FD3A564B9A60564AC4
S2140066D053681E218B431A390B4353608023DB0516
S2140066E09B78022B0FD08023DB059B785BB2002BB8
S2140066F009DB8023DB0501229A7101329A701A00A9
S2140067009379002BFCD005A8002303708022120288
S214006710426083700122C270037283720332427039
S2140067204372424B98470520414B98474149012206
S214006730CB681A42FCD03F4A536980210B43536111
S21400674002A901254D6000244C700C724C72032384
S2140067500B700020384B98470620384B984701A806
S214006760447005708470364B98470620304B984727
S2140067702B491022CB681A42FCD002AC0126666078
S2140067800025657006239A462370257265722100DF
S2140067900020294B984698472A4B984766606570B4
S2140067A0657205232370267221000120C047012050
S2140067B0254B99469847254FBE717E713E7166609F
S2140067C06570534623702572657221000020C0470D
S2140067D00020C84700201E4B98473979C9B21D4B88
S2140067E098471D4B984214D88023DB059B78002BD6
S2140067F00FD08023DB059B785BB2002B09DB802360
S214006800DB0501229A7100229A701A009379002BF8
S214006810FCD008B01CBC90469946A246F0BDC046C7
S214006820000C00400014004000400041DD64000001
S21400683079650000001000408168000035660000A1
S214006840A96400005D6800002D6900000004004097
S2140068506D6900007D1B0100001BB700064A5369E6
S21400686040210B4353610122044B1A7019000B7828
S2140068701342FCD17047C046000400400018004098
S21400688070B504000D784B78002B02D08023DB0017
S2140068901D434B7A002B02D080231B011D43486802
S2140068A001280FD9431E184231D102282DD90223C0
S2140068B0002201325B009842FBD880235B011D4317
S2140068C0120415430B7A002B02D080239B011D4334
S2140068D00426A6401149124A4B6813401E42FBD1BB
S2140068E0104B9847A4000D4B9C466444226A8023B4
S2140068F05B001A402A4322626146094A4B681340ED
S2140069001E42FBD1084B984770BD0022D5E7000415
S21400691080239B0018430543D4E7C0460018004078
S214006920FC070000A54A0000E54A000010B5040078
S2140069300422824009480A4943680B401A42FBD1A8
S214006940084B9847A400054B9C466444226A802363
S2140069505B0013432362044B984710BD00180040A9
S214006960FC070000A54A0000E54A0000F8B5040050
S214006970042282401248134943680B401A42FBD156
S214006980114B98470E4F0834A400E0590007000F3B
S2140069900E4B98470600E559ED04ED0FE459240C1C
S2140069A00B4B9847002D07D1012C07D9210030004A
S2140069B0084B9847060001E00134E6403000F8BD79
S2140069C000180040FC070000A54A000015640000FF
S2140069D0E54A00007D1B010010B50400094B9847EE
S2140069E0A000094B9C4660448022835840210B43FC
S2140069F083504031403A43581A42FCD0034B9847E4
S214006A0010BDC046A54A000000180040E54A000038
S214006A1010B50400094B9847A000094B9C466044FB
S214006A208022835840218B4383504031403A43585C
S214006A301A42FCD1034B984710BDC046A54A000039
S214006A4000180040E54A000070B504000D00054B34
S214006A5098472A780F2313402034A400024AA350F4
S214006A6070BDC046116A00000018004010B5040052
S214006A70064B98472034A400054BE4582407240FFF
S214006A80044B98472000044B984710BDA54A0000C9
S214006A9000180040E54A00006D69000030B5D37864
S214006AA0002B35D11378802B29D01B068024640256
S214006AB0234354780225AC4306D19478002C20D189
S214006AC08024A402234341605478013C012C1CD945
S214006AD00D042D0CA024E4052C431C4384620D0CED
S214006AE0D02424062C431C438462D478002C22D164
S214006AF05B031CD59378012B1ED0416117E0002361
S214006B00D7E7C024E4022343DDE70D4C2340DFE74C
S214006B1041600C04240CA023DB05234383620C0C89
S214006B20D0231B0623438362D378002B03D15378EC
S214006B30013B012B02D930BD8161F8E78160FAE79D
S214006B40FFFFFBFF10B50A00C1090023002904D18E
S214006B504309DB0105498C4663441F24204001217C
S214006B6081401800024B984710BDC04600280040E0
S214006B709D6A00007047FFFF10B5054B9847054B10
S214006B809847054B9847054B9847054B984710BDC7
S214006B90B5660000154B0000756B0000414E000006
S214006BA0756B0000931C9B001950022A09D0032A1B
S214006BB00CD0012393401A00037E13430376002073
S214006BC07047037E102213430376F8E7037E2022E5
S214006BD013430376F3E7FFFF70B58000164BC458E7
S214006BE023689D7A227E637E13401D40EB0706D401
S214006BF0AB070BD4EB0610D4AB0615D470BD200043
S214006C00A3689847012322689372F1E72000E3689F
S214006C109847022322689372ECE72000236998477E
S214006C20102322689372E7E7200063699847236879
S214006C3020229A72E2E7C0460821002010B5002004
S214006C40014B984710BDC046D96B000010B5012017
S214006C50014B984710BDC046D96B000010B5022006
S214006C60014B984710BDC046D96B000030B587B0C1
S214006C7001A90C4B0A0032CB32C212CB12C2019BC6
S214006C8098420BD0012301A99A005258824206D09E
S214006C900133052BF8D1002007B030BD0023D8B251
S214006CA0FAE7C046CC680100F0B5C64600B58EB01F
S214006CB004000D0016000800AE4B984780460CAB4B
S214006CC01B221A705A7001329A70DA7001321A71E9
S214006CD002A9A94B14330A0083CB83C283CB83C299
S214006CE083CB83C21B6813600023A360E360236129
S214006CF063612376637643469A00A04BD4502560A2
S214006D003423F35CA376F378082B08D023712B6822
S214006D100520DB0708D50EB004BC9046F0BD172052
S214006D204246D207F7D4F1E7EB7A17309B07F2D446
S214006D302B689B07EFD4337C002B12D1337F002BBC
S214006D401BD143465A0002A9531C9B005858434681
S214006D50DB005B58D9B2042923D88B008849CB586E
S214006D609F4601A901238B700022CA70327E0A70EA
S214006D704B70307D834B9847E0E701A901238B7069
S214006D800022CA702432B21812780A704B701F3371
S214006D90F31818787B4B9847D3E77B494B69184321
S214006DA04861F378082B00D186E033786A46137082
S214006DB00CAB42469F5C69463800744B98473800D7
S214006DC0734B9847F378F2791343B2881343727A79
S214006DD0002A02D0802252021343B27A002A02D03E
S214006DE0802292021343F27A002A02D080225203B3
S214006DF01343327B002A02D0802292031343717819
S214006E008901B278D2011143194322681369002B15
S214006E10FCD1296022681369002BFCD1B3792B734F
S214006E20717B4B1E99418900B37B002B01D0012357
S214006E30194322681369002BFCD1FF332B710029FC
S214006E4004D022681369002BFCD16971337A6B7306
S214006E5022681369002BFCD12379042B59D0082B08
S214006E6074D01720002B00D055E71369002BFCD1F7
S214006E70338DAB8222681369002BFCD1738DAB83F4
S214006E8022681369002BFCD1B38DEB83002042E708
S214006E903D498B691843886183E73B49CB691843B2
S214006EA0C8617EE738490B6A1843086279E7364BB3
S214006EB0596A0843586274E743460133042B00DDE1
S214006EC073E702ABD11C8900C95802329200D3582E
S214006ED0DAB2042A00D968E793002E4AD3589F46B0
S214006EE0294A5369194351615FE7274A9369194351
S214006EF091615AE7244AD3691943D16155E7224A7A
S214006F00136A1943116250E71F4B5A6A11435962BC
S214006F104BE71369002BFCD12833F35C2B752268F2
S214006F201369002BFCD12933F35CEB7622681369D6
S214006F30002BFCD12A33F35C2B7722681369002BD5
S214006F40FCD12B33F35C6B770020E4E61369002B4F
S214006F50FCD1B36A6B6122681369002BFCD1F36A1B
S214006F60EB6122681369002BFCD1336B2B62002087
S214006F70D1E6C0466D6C0000CC68010008210020F8
S214006F80A4680100456B000000040040496A000048
S214006F90D9690000B868010002681369002BFCD1AB
S214006FA0137101680B69002BFCD180335371537940
S214006FB05BB2002BFBDB02681369002BFCD1037964
S214006FC0042B05D0082B09D00020002B03D07047D7
S214006FD0107DC0B2FBE7908A80B2F8E75069F6E70A
S214006FE010B504682369002BFCD10379042B06D066
S214006FF0082B28D0002B13D01723180010BD1723FA
S2140070000129FAD8837E002B05D0D2B26118303120
S2140070100A700023F1E7D2B2641822770023ECE767
S21400702017230129E9D8837E002B05D092B21831A8
S21400703049000A530023E0E792B20C314900641875
S214007040A2800023D9E717230129D6D8837E002BF8
S21400705005D106318900641862600023CDE70C3143
S21400706089000A510023C8E7FEE7FFFF10B51A4A59
S2140070701A4B9A4211D01A00194B9A420DD2194A4D
S21400708003339B1A9B0801339B00002213481249C6
S2140070908C58845004329A42FAD1134A134B9A42BF
S2140070A00AD2D34311495B1803218B4304339B1840
S2140070B0002102C29342FCD10D4AFF210D4B8B43A7
S2140070C093600D4A53687F390B4353600B4B9847C8
S2140070D00B4B9847FEE7C046E47501000000002011
S2140070E08C0000200400002090000020BC3200200D
S2140070F000ED00E00000000000400041794D010076
S2140071002D750000F0B5C64600B50C009046002868
S2140071100FD1002A11DD8F18094E0A4D3068210064
S2140071202B6898470134BC42F8D1404604BC9046D0
S214007130F0BD01235B429846F7E78046F5E7C04678
S214007140242100201C210020F0B5C64600B50E0004
S21400715015000138022810D8002A11D000240C4B44
S21400716098460C4F43461868315D3B6898470028A0
S21400717008DB0134A542F5D106E00124644203E0B1
S214007180140001E001246442200004BC9046F0BDD7
S21400719024210020202100200300064A1268002A2D
S2140071A004D0044A1068C318136070470249014AA5
S2140071B01160F6E7FC020020C05200200120404289
S2140071C0704780239B014B6000207047012070476A
S2140071D00020704700BEFEE770470120404270471F
S2140071E010B5012200210C480C4B98470C480D4C5A
S2140071F0A0470D48A0470D48A0470D48A0470D489A
S214007200A0470D48A0470D48A0470D48A0470D4889
S2140072100D4B984710BDC046FC690100F17B00008D
S214007220246A0100995301005C6A0100846A010027
S214007230A46A0100C06A0100006B01003C6B0100FB
S214007240786B0100C06B0100B554010070B50400F6
S21400725000290ED0012201000D480E4B98470E481B
S2140072600E4DA84721000E48A8470E480E4B9847DB
S21400727070BD012201000D48064B98470C48074D8B
S214007280A84721000648A8470648074B9847EFE757
S21400729074690100F17B00009469010099530100B4
S2140072A070690100CC720100B5540100306901001C
S2140072B05069010010B5002200210248024B984791
S2140072C010BDC046206C0100F17B0000F8B52A4BCB
S2140072D01B781B0726D4284B1B789B0727D01C211E
S2140072E02648274B9847244C617B2648264B9847D0
S2140072F023785B0620D403212448214B98471E4B55
S2140073001B7B002B0AD000241B4D214EAB68185D5A
S214007310B0470134E4B22B7BA342F7D81D481E4B7E
S2140073209847F8BD09211D48154B9847D3E71A2101
S2140073301B48134B9847D6E707211A48104B984727
S2140073400D4B1B7807247F2B09D80B4F164E0E4D7E
S2140073507B68195D3000A847013CF9D2CBE7064EA2
S21400736073685978104D2800074CA0477368197841
S2140073702800A047BFE7C046F02A0020D06B0100D7
S21400738045BD0000086C0100995301001C6C01000B
S21400739071BD0000CC720100B5540100C46B010041
S2140073A0EC6B0100106C0100186C010010B5014B6D
S2140073B0984710BD957B000070B505000448054C45
S2140073C0A04729000448A0470448054B984770BDCD
S2140073D0B46901009953010070690100CC6901008D
S2140073E0B554010010B50448044B9847012200210B
S2140073F00348044B984710BD486C0100B554010083
S2140074005C6C0100F17B000010B50448044B984703
S214007410012200210348044B984710BD086901006B
S214007420B55401001C690100F17B000010B5194B32
S2140074301B6ADB000ED4184B1B780020002B00D0F4
S21400744010BD0122144B1A70144B9847144B186049
S2140074500120F5E70F4B1B6A5B020DD40E4B1B7821
S2140074600020002BECD101220B4B1A700B4B9847D7
S2140074700B4B18600220E3E7084B9847084B196847
S214007480084B9847084B984202D90022024B1A70C4
S2140074900020D5E70028004028210020E5BA00009B
S2140074A02C21002045BB0000FF3F000030B583B014
S2140074B001AC0023237001226270A3702100162005
S2140074C0044DA84721000620A84721000720A8470A
S2140074D003B030BD5551000010B5024B9847002050
S2140074E010BDC0463D7B000010B582B06B466946B5
S2140074F00B4A0C4C108808701088000A487002323C
S2140075000231A242F6D1084A082040426844D9799E
S2140075101170013B01328342F9D102B010BDC04662
S2140075200A408000124080002000002070B5104BFA
S2140075309847104B984701220F4B1A70BFF35F8F86
S21400754062B60E4B98470E4B98470E4B98470E4B1D
S21400755098470E4B98470E4B984700200D4B984780
S2140075600D4B98470D4D0E4CA847A047FCE7C0466C
S214007570796B0000B146000014000020517B00002B
S214007580F9BB0000E97400009DC60000E171000030
S214007590AD74000081790000ADCC0000BDCC0000C9
S2140075A03D7B000010B50520034B9847034B187829
S2140075B0034B984710BDC046D59800000503002031
S2140075C03DCA000010B514000A0001000548064B2D
S2140075D09847064B1878064B98472000054B984767
S2140075E010BDC046A06C01009953010005030020A1
S2140075F03DCA000061B9000070B586B06F4B984771
S214007600012803D0022848D006B070BD012252429D
S21400761016236B441A80E020694B98470028F3D065
S2140076200022684B1A7000244223664D621CD2B2B8
S214007630035529780131C9B229701400D929F5D922
S21400764061490B7801330B7060490B785C1C0C7039
S2140076505F490291012101910093030015316944AD
S21400766002205C4CA04700280DD15B4B98475B4B33
S21400767018780130C0B21870594B1978594B984792
S214007680594B9847C0E7594B187800230093584B3E
S21400769000225849584CA047E9E70123574A13707F
S2140076A00021574A1170574A1370444C3DE000239E
S2140076B0544A1370514A1370DF30414B98470028E4
S2140076C0A2D000223F4B1A70002555233D4E6A1C5F
S2140076D0D2B2435531780131C9B231701500D9297B
S2140076E0F5D949490B7801330B70454B1B78990047
S2140076F0C9184900454BC918344D2B785E1C2E70AE
S214007700334D029501250195009303000820314D65
S214007710A847002840D13E4B9847314B19782F4B4D
S2140077201878304B9847304B9847364B1B78002BD1
S21400773000D169E7374B9847314B1B7833489A009E
S214007740D118490041188D78029549780191D218D0
S2140077505200125C0092304A41213048304DA84712
S214007760304B98470122254B1A701D002B78002BB2
S214007770DBD0A04701289AD00228F7D1204B1A78F0
S214007780294B1B78023B9A4214DD00221C4B1A70D0
S21400779000221A4B1A70E9E7104A13780133137067
S2140077A0124B187800230093114B00221149124DFA
S2140077B0A847B2E70132124B1A70E9E72D740000B1
S2140077C0A5B8000032210020020300200403002098
S2140077D0C5750000F1A60000097400000103002032
S2140077E000030020AD730000B57200000503002002
S2140077F0A5750000404B4C0039C70000150000205E
S2140078003121002030210020030300200C28002016
S214007810E57300005D7B0000C86C01003421002089
S21400782009570100797B00006528002010B50E4B33
S2140078301A8843889A4205D08278C1780B480C4B48
S214007840984710BD0B4B98470B4B18780B4B197885
S2140078500131C9B219700A4B984780221203094BAE
S214007860DA61094B9847ECE75C2800206C6C010055
S21400787099530100CD720000010300200003002090
S214007880AD73000000280040B572000070B505001A
S2140078900348044CA04729000348A04770BDC046D3
S2140078A0F46C010099530100146D0100F0B5DE463A
S2140078B057464E464546E0B583B0030001908B46DA
S2140078C0013B994640D4002400239846244B9A4610
S2140078D04B4600931FE00920224EB0474B46997B4B
S2140078E0214C2000214DA8472148A8474B465989DE
S2140078F02000A8470920B0474B4619782000A84723
S2140079001C48174B984743460133DBB298461C0089
S214007910009B984518DC1848D047611C1248134B4A
S214007920984709200F4B984743461B015B449946EE
S2140079301C0008341F000C4E0C4D21783000A84760
S214007940013CA742F9D1C6E701990C48074B984776
S21400795003B03CBC90469946A246AB46F0BDC04636
S214007960B5540100CD530100086C01009953010085
S2140079704C6D0100CC720100186D0100506D0100C5
S21400798070B586B004005548554B9847002C33D048
S21400799000210020534B9847534B9847534B98472A
S2140079A00022002304920593514E0832310004A8A9
S2140079B0504DA847040001225242D3170492059363
S2140079C00932310004A8A847002801D0002C08D1AD
S2140079D0474C26000836484DA84720700134B4426C
S2140079E0FAD14348454B9847454B98474548464B40
S2140079F09847012006B070BD80221203434B9A615F
S214007A0000210020374B9847374B9847374B98470D
S214007A100022002304920593354E0832310004A854
S214007A20344DA847040001225242D317049205930E
S214007A300932310004A8A847002836D0002C34D0DC
S214007A402B482E4B98470020314B9847314C2078D6
S214007A500021314B9847314A012149420520304BDD
S214007A609847210000202F4B9847002827D00E2249
S214007A706A4401235B421380264B18782A4B0093F6
S214007A8000230021294CA047FF281DD0214B187841
S214007A900121214B9847FF20254B9847802212034F
S214007AA01A4B5A61164B9847A0E7114C2600083629
S214007AB0114DA84720700134B442FAD1C0E7154BE7
S214007AC018781C4B9847D2E7124B1B7801229A4035
S214007AD0154B0A210020184CA047DCE72D78000043
S214007AE07DAC000049A800004DA40000C954010068
S214007AF020000020C14D01002555010071A40000A2
S214007B00B57200000503002005C7000000280040ED
S214007B105DAC0000190000204D720000AD7800003A
S214007B202DB7000025A800008D78000039B50000AC
S214007B3095A90000B9730000F5A8000010B5024B27
S214007B409847024B984710BDE5AD0000F975000058
S214007B5010B5014B984710BDE549000010B582B03E
S214007B60002300932033802200210020014CA047F0
S214007B7002B010BD3D48000010B5034B00220021A6
S214007B800248034CA04710BD080000203421002006
S214007B904149000070B582B005000E000023009336
S214007BA020338022002100200A4CA0470A4C009671
S214007BB02B000A4A41212000094DA847094B002204
S214007BC000212000084CA047C820084B984702B068
S214007BD070BDC0463D480000342100207C6D010089
S214007BE00957010008000020414900001D47000019
S214007BF0F0B583B005000C00160000230093203378
S214007C00802200210020134FB8472A004121124845
S214007C10124B9847002C0DD000200130C0B2013521
S214007C202B78002BF9D10C4BC01823000C4A4121AD
S214007C300A4CA0470B4B0022002107480A4CA047DD
S214007C40002E01D103B0F0BDFA20C000074B9847C4
S214007C50F8E7C0463D4800003421002009570100DF
S214007C607069010008000020414900001D4700001F
S214007C70F0B5C64600B584B014001F00294BCB18DB
S214007C8040031D18002F1AD0274B5A1E95421CD8A9
S214007C907A1993421FD3C91980239B01994220D891
S214007CA0224B98463E1C102F00D91026B6B2320042
S214007CB029006846C047002E28D000231FE01C4B32
S214007CC01C4AD9211C481D4CA0471D4B194ADA21D5
S214007CD019481A4CA0471B4B164ADB211648174C6E
S214007CE0A047194B134ADC211348144CA047FF2128
S214007CF0914212D10133DBB29AB2964206D96A4655
S214007D00D25C002CF3D021780134F1E7BF1BBFB260
S214007D10AD19002FC6D1012000E0002004B004BC3D
S214007D209046F0BD0004000000440000DF4D010056
S214007D30A06D0100AC6E0100B06D01001D4D01008C
S214007D40F46D0100106E0100446E010070B5150060
S214007D504403134808182418124A501E84420DD8AB
S214007D60E018824210D3C91880229201914211D89D
S214007D701A00210028000C4B984770BD0B4B0C4A8C
S214007D8072210C480C4CA0470C4B094A7321094839
S214007D90094CA0470A4B064A74210648064CA047E1
S214007DA00004000000440000DF4D0100F46D0100F7
S214007DB0746E0100B06D01001D4D0100106E0100D3
S214007DC0446E0100F0B5DE4657464E464546E0B5E1
S214007DD093B001929A46464C0C1940032518002B86
S214007DE047D0444B5A1E954249D8524652199342A0
S214007DF04BD3D346514480239B0199424BD83E4BEC
S214007E001B68002B00D098473F272F40EC1B4026CE
S214007E10F61B5E4500DD5646B3B29B464022FF2168
S214007E2002A8364B98473B0002AA94466344009348
S214007E303604370C3A0001991800314B9847314BFD
S214007E409847314E402202A92000B0470528F9D0B5
S214007E502E4B984753465A469E1AB6B2EC19019BCB
S214007E609946B944002E3BD0244B9B46244B98465B
S214007E7031E0274B274A8A212748284CA047284B21
S214007E80244A8B212448254CA047264B214A8C2186
S214007E902148224CA047244B1E4A8D211E481F4CC9
S214007EA0A0479FB24022FF2102A8D8473A00494681
S214007EB00098C047134B9847134D402202A9200054
S214007EC0A8470528F9D0114B9847F61BB6B2E41917
S214007ED0B944002E04D0331C402EE2D94023E0E7FC
S214007EE013B03CBC90469946A246AB46F0BDC04691
S214007EF0000400000044000008030020F14D0100CB
S214007F00DF4D0100A54A0000F54F0000E54A0000DD
S214007F10A06D0100846E0100B06D01001D4D0100D2
S214007F20F46D0100106E0100446E010070B544034C
S214007F300C482418FF239C430B4B013B80229201E4
S214007F40A6189C4207D8094D2000A8470134FF34E4
S214007F50B442F9D170BD064B064AC2210648074C0A
S214007F60A047C0460004000000440000CD500000BA
S214007F70F46D0100946E0100B06D01001D4D01000E
S214007F8010B513000022014CA04710BD717C000004
S214007F9010B5014CA04710BD717C000010B5054B14
S214007FA01B68002B04D0984701235840C0B210BD70
S214007FB00020FCE774040020012909D0002902D023
S214007FC002290DD070470A4B1A8880181880F9E7E6
S214007FD0074A13880F33C0180F2398431080F1E721
S214007FE0034A13883F33C0183F2398431080E9E7BD
S214007FF07A04002030B5002919D0FF2413E02300AE
S214008000150A6B401D096B4012025A401D036A4058
S2140080105B015A4092B203005D1EAB41C0180139A5
S21400802089B2002903D00028E9D00378E8E71000D9
S21400803030BDFFFFF0B5DE46574680B589B00190EB
S21400804002919346109A002A0DD092469A445B44B9
S2140080509DB25E46029C0120AB453ED0224F002CCE
S21400806008D1002039E000229246F0E704AB5C8994
S214008070002C31D0102304AA21000198B84704AB85
S2140080809A88AA42F2D2DB88D3189BB2B342EDD9C3
S214008090AB4201D21E00E9E7A91A89B2B24215D94D
S2140080A004AB5B8903930B00ED1AADB25246002A6F
S2140080B008D010340919D21A9246C91A89B2019802
S2140080C0094CA047AE420DD0039CC8E7AB1B9BB241
S2140080D05E46029A0392E7E7002009B00CBC92467F
S2140080E09B46F0BD0120F8E74D7D0000F0B5DE466A
S2140080F0474680B587B0049005919579D3791B02E1
S2140081001D43177953791B021F432C0A64B2002CB7
S2140081102FDB1C4B03931C4B984611E0002D2AD0F6
S2140081201A4B00932B003A0005990498184EB04756
S214008130002820D0290015E0013C64B2631C1AD048
S214008140002CEBD0013DFF3DADB2104B00938023D9
S2140081505B003A00059904980D4EB0470028EBD016
S214008160802149007F18BFB2039A0848C047039091
S214008170E2E7044B0393039807B00CBC90469B467B
S214008180F0BDC046FFFF0000F57F00003C03002066
S2140081903580000070B5164B1C78002C26D0154B89
S2140081A01B88834216D00123124EDAB294421BD9A2
S2140081B01D00591C9A00B25A824201D00B00F4E707
S2140081C09B000C48C018AD000A4B5D196B88002B4D
S2140081D003D070BD07480025F5E7074B074A8C21FA
S2140081E0FF310748074CA0470020F2E70020F0E7E1
S2140081F070040020540400200C6F0100F86F01008A
S214008200286F01001D4D010010B5054B984700284A
S21400821004D08378C0780002184310BD0020FCE725
S2140082209581000010B504000E4B984700280BD12E
S2140082300D4B1B78062B0ED8591C0B4A11700B4899
S2140082409B001C52C01810BD094B0A4ACC2149009D
S21400825009480A4CA0470A4B064A9A21FF310648AD
S214008260064CA047958100007004002054040020AE
S214008270D06E010008700100286F01001D4D01003E
S214008280EC6E010010B5084C2078084B9847207813
S214008290802292010021064B9847002803D08022B6
S2140082A05200044B1A8010BD780400202D7F000079
S2140082B0817F00007A040020F0B583B001900D00A5
S2140082C01600074F387813000A000199054CA0479E
S2140082D0387833002A000199034CA04703B0F0BD5C
S2140082E078040020C57D0000917F000010B586B0A0
S2140082F001AC4123A3701333E370013B2371053BAC
S21400830063712833A371443BE3710390C043049028
S214008310084B1B882382084A10216B46981D074B82
S21400832098472080122221000020054B984706B06F
S21400833010BDC04672040020FFFF0000F57F00005D
S214008340B9820000F8B504000D00214A1388CB1846
S2140083509BB21380FF2B2ED91E4B1A8880188025BF
S2140083606D00AA1A1C491D4B98471D4B18882A00F9
S21400837021001C4B9847051E27D000218020400076
S214008380194B9847134B188800221A80104B1E88EA
S214008390013EFF3EB6B21E80002E16D08021490058
S2140083A0091A89B20C4B5918320020000B4B98471B
S2140083B0084B1E8009E0074E3788C0190A00064998
S2140083C0064B9847ED19358001252800F8BDC046B4
S2140083D0380300200C0300203C030020DF4D010082
S2140083E07A040020B9820000B97F0000F0B5DE46AE
S2140083F057464E464546E0B5D5B07B487B4B98473A
S21400840000237B4A13807B4A13807B4A13807B4A77
S21400841013807B4B1B781F00039312230FAA0021A7
S2140084203800784CA047119B0993754C2500260010
S21400843008E03370724B1B78BB420BD0724B9847E8
S21400844000280DD123780133DBB2012BF1D90023AC
S2140084502B70EFE76D4B6E4A6E496F486F4CA04726
S2140084606F4B1B78002B6AD0002306930133FF3333
S21400847099466A46D3826B4B10330893069B079344
S2140084809F00694B9C4667447B881D00049310231D
S2140084900BAA2900039880465A4CA0470BAE00232F
S2140084A0B3803489F4807381B3811034A4B232006F
S2140084B0290040465D4B984730805D4A0E210BA848
S2140084C05C4B9847F081574D4A46FF2128005A4B8F
S2140084D098472B0007CE07C332681A60574B1B8895
S2140084E0454A12889B187B804C4504D900261023E9
S2140084F04C4A904668E00BAB1B89089A0092002213
S214008500049903984E4EB047002863D0079B9D0001
S214008510454B5D19494B1B88374A12889B186B8060
S214008520210014A8474B9847002853D0069B0133D8
S214008530DBB21A0006933A4B1B7893429ED82F4B19
S2140085401A88002A06D03D4B188814A93E4B984737
S214008550041E40D0294B188800213C4B9847374BC7
S2140085601A883B4B1A80099801383A4B9847041EE4
S21400857031D002210020354B9847374B6A46127B94
S2140085801A70364D2800194B98472800344B9847E8
S21400859021E0ADB2EF1ABAB29346434400931300FB
S2140085A0320004990398264FB847002812D02900B5
S2140085B014A8244B984700280CD0641BA4B25E4431
S2140085C0B6B20023002CB1D0251C4C45E1D96A4632
S2140085D0D58ADEE70024200055B03CBC904699467C
S2140085E0A246AB46F0BDC0462403002059BA0000A0
S2140085F050040020520400200C0300203803002002
S214008600780400204D7D000085820000C86E0100C1
S21400861018700100D5030000286F01001D4D0100F1
S214008620700400203C03002054040020ED8000006D
S214008630FFFF0000F57F0000F14D01007A040020E6
S2140086403580000045830000B9820000B97F000035
S21400865072040020ED8200001A0000203C04002076
S214008660C5BA000010B5074B9847002800D010BDCB
S214008670054B9847054B064A2C21FF310548064C0A
S214008680A047C0469D7F0000ED830000C86E010035
S214008690E06F0100286F01001D4D010010B5124B60
S2140086A01A8880239B019B1A9BB2834203D30F4AEE
S2140086B093420AD910BD0E4B98470028FAD10D4BAD
S2140086C00D4A0E490E480F4CA0470F480F4B9847CF
S2140086D00028EFD10C4B0E4A1A610E4A5A609A6077
S2140086E000221A73E6E7C0467A0400200F0800004E
S2140086F0ED830000C86E0100287001004E040000E3
S214008700286F01001D4D01002403002099BA0000C7
S2140087106586000010270000F0B5DE4657464E4638
S2140087204546E0B58BB0774B98470523002807D021
S21400873018000BB03CBC90469946A246AB46F0BD2E
S214008740714B1888002846D1704B1B88002B00D12F
S214008750D0E06E4B18886E4B98478346002800D1B1
S214008760CAE08278C3781B02134319000393694B4F
S2140087701878102306AA684CA047634B1A88002A6C
S2140087802ED0664B1B88059306AB1B8906A90A816B
S214008790191C934200D9111C8BB206AA00219180A5
S2140087A01089D080518191811C001034A4B25C499C
S2140087B061CA61C112680A6080225200944239D9A7
S2140087C00026102380225200914669464A82514A6A
S2140087D092461A0088E0103080B2524B9847B8E7AD
S2140087E006AB1889103080B24E4B9847474B188816
S2140087F0474B98478346002815D08278C3781B02DB
S21400880013431900039306AC424B1878102322003A
S214008810414DA847414B1B88059323893A4A128845
S214008820002ABAD0B2E7404B404A9121C9004048DE
S214008830404CA047374A1078394A1032009200223E
S21400884003993D4CA0470123002800D170E7344926
S21400885006AB0A00180070C870C200681060DA889C
S214008860103292B22D4B1888344B984700230028BC
S21400887000D15DE706ABD888103080B20221304BBD
S21400888098470023214A13801F4A13805B460599A8
S21400889099700B0A5A46D370002349E7ADB2AF1A57
S2140088A0BBB21900534618781D4B9B1800930291D3
S2140088B00B0032000399204FB84700281ED0174BF4
S2140088C018882A0016491D4B9847002818D0022100
S2140088D028001B4B9847641BA4B202998C4666443A
S2140088E0B6B20022002CCCD0251C4C45D6D96B46FF
S2140088F05D8AD3E700231BE7002319E7012317E768
S214008900002315E79D7F000052040020500400203D
S21400891095810000780400204D7D00007A04002038
S2140089203C0300209D860000B86E010040700100E8
S214008930286F01001D4D010035800000B98200003F
S214008940B97F000010B5014B984710BD198700008D
S214008950F0B5DE4657464E464546E0B583B00400C1
S2140089608A46464D80225200FF212800444B9847F5
S214008970444EA379E1790902194332005046424F2A
S214008980B8472070000A607032000E212000B847F9
S214008990A073000AE0731022210028003B4B984782
S2140089A0A379E27912021A4315001035ADB2534688
S2140089B0002B12D080235B009D4209D90026102789
S2140089C080235B009B466A46D3802C4B994645E045
S2140089D051462A4810302D4B9847A379E279120267
S2140089E01A43103280235B009A4200DD1A0092B2CE
S2140089F0274B18882149274B98478046002833D0B4
S214008A00A379E07900021843103080B20221224B8D
S214008A109847404603B03CBC90469946A246AB46B3
S214008A20F0BDA4B24B46D819E21B53469919174B12
S214008A309847174B188822004946164B9847804699
S214008A400028E6D002212000134B98472D1BADB21C
S214008A50E41B3619B6B20027002DDAD02C1C5D4573
S214008A60DFD96B46DC88DCE7A379E079000218439F
S214008A70103080B20221084B9847CAE73C0300201A
S214008A80F14D0100FFFF0000F57F0000DF4D010003
S214008A907A040020B9820000B97F0000F0B5CE4607
S214008AA0474680B587B00400019115001F000028D6
S214008AB00CD0002B0AD0354B9847052300280BD046
S214008AC0180007B00CBC90469946F0BD304B314AB2
S214008AD031493248324CA0472800103080B2314B22
S214008AE098472000304B9847060003230028E7D01D
S214008AF08378C47824021C43A0462C4B1878102395
S214008B0002AA21002A4CA04702AB1989019B5A19D8
S214008B1004238A42D4D802AB6A4692889A80DD80C3
S214008B2042465A818D422CD002AB9B89013302AA61
S214008B309381204B1C88390002A81F4B98470123BD
S214008B400028BDD0B470240AF47002AB9A890023C2
S214008B50642AB5D902AB5A88184B1A800022184BE3
S214008B601A801848184B984700230028A8D1154BA0
S214008B70164A1A61164A5A609A6000221A7300232F
S214008B809EE7002302AA9381D3E7C0469D7F00009C
S214008B90C06F01006070010096050000286F01009C
S214008BA01D4D01009D860000958100007804002080
S214008BB04D7D00007A0400205189000050040020FA
S214008BC0520400201003002099BA000045890000D6
S214008BD0B80B0000F0B583B00C0015001E0000288E
S214008BE009D0002B07D0104B98470323002808D144
S214008BF0180003B0F0BD0D4B0D4A0E490E480F4C41
S214008C00A04762190E4901338A42F1D80D4B1F78EE
S214008C1000962B002200010038000B4CA047434270
S214008C2043419B00E4E7C04609820000C06F010094
S214008C3070700100EE050000286F01001D4D010058
S214008C40FFFF0000780400203580000010B584B0D7
S214008C50002805D00A4B9847011E07D104B010BD66
S214008C60084B094A09490A480A4CA0470A4B187893
S214008C7010236A46094CA0476B461889EEE7C046A3
S214008C8009820000B46F0100807001000B0600002E
S214008C90286F01001D4D0100780400204D7D000066
S214008CA0F0B585B004000E001500431E9BB22E4A98
S214008CB093421ED880231B0199421AD82B4B984703
S214008CC000281DD020002A4B9847864207D0294B03
S214008CD01C80294B1E80294B9847031E15D1002D5A
S214008CE040D02B00320000212000254CA047030076
S214008CF00BE0244B244AAA21C9002448244CA04750
S214008D00244B98470523002802D0180005B0F0BD74
S214008D103000103080B2204B9847204B1B78062B33
S214008D2019D81F4B1F886B465C8000236A469380C9
S214008D30D68016815381938129006846194B98473F
S214008D4001230028E1D02000174B984787703F0A80
S214008D50C7700223D9E7154B0B4AAF21C9000B4851
S214008D600B4CA0470023D0E7FEEF0000098200006E
S214008D704D8C00005004002052040020198700008B
S214008D80D58B0000746F01004C700100286F010045
S214008D901D4D01009D7F00009D8600007004002090
S214008DA07A0400205189000025820000EC6E010044
S214008DB010B5034B9847431E9841C0B210BDC0463D
S214008DC009820000F0B5D646474680B587B00F004A
S214008DD0204B984212D0430415D4C308CF1807235B
S214008DE01840063B83403A7813433B7001230193B7
S214008DF0019807B00CBC90469A46F0BDFE230B7057
S214008E00FD3B0193F4E704A9134B98470190002813
S214008E10EED004AB9B889846002BE9D0002402AB2A
S214008E209D1D0E4B9A4607266100049B9C46614496
S214008E3002222800D0472988CA08BA1831400123E0
S214008E408B4011780B4313700134E4B2A3B2434550
S214008E50EAD3CDE70240000071900000DF4D01002C
S214008E6010B50549054B9847041E01D1200010BDDA
S214008E700020034B9847F9E780040020C58D0000CA
S214008E80C18F0000F0B585B03E4B1B78013307223A
S214008E9013403D4A177838001E003A00DA40D207E1
S214008EA031D40133DBB20722072501242B401E00F4
S214008EB00100D9400C4226D10133DBB2013AD2B2CE
S214008EC0002AF3D10124E400E41820002F4B984731
S214008ED0002824D1694620002D4B9847002838D01A
S214008EE0029B002B00D09847019A6B4659882000B9
S214008EF0284B9847FD2318422BD0274B274AEA21B8
S214008F002748284CA0470122B24097431E4A1770B4
S214008F100021254A11701B4A13700024D3E76946C6
S214008F2020001B4B9847002813D06B465B88002B0D
S214008F3015D0019B002B12D0029B002B00D0984727
S214008F40019B6A46528800212000184CA047002842
S214008F500CD10D4B1B78002B0FD105B0F0BD144B78
S214008F60144A3421FF310E480E4CA047124B114ACA
S214008F704221FF310A480B4CA04700200F4B984770
S214008F80EBE7C0468104002080040020B18D00007D
S214008F9015900000A18C0000247101006C71010086
S214008FA0D47001001D4D01007C0400209D8A000045
S214008FB0987001008471010094710100C18F000057
S214008FC0034A0123834011780B4313707047C04651
S214008FD08204002070B50D4B1D78002D12D028009D
S214008FE0EB0710D4002301240133DBB21900020082
S214008FF0DA401442F8D001238B405D40034B1D70CD
S214009000034B984770BD0021F5E7C0468204002058
S214009010858E0000F0B587B0019102AA104B1100B2
S21400902070CB70C11B680B601388834211D00D4B48
S21400903002AA11001C00E0CCE0C124680C60118874
S214009040814206D0103308498B42F2D1002007B087
S214009050F0BD102202A90198044B98470120F6E7BC
S214009060004400001044000070440000DF4D010082
S21400907070B582B00C006B46084A694660CA60C18B
S214009080DA880023824202D0180002B070BD08229F
S21400909069462000024B98470123F5E7004400008C
S2140090A0DF4D010010B50278084B1A7042785A70EE
S2140090B00A78074C22704A7862701888054B9847E1
S2140090C02088054B9847012010BDC0467C22002012
S2140090D0F02200204DA3000039A30000F0B5C646DC
S2140090E000B5C6B006000C009C464C99250923071F
S2140090F000D001354920404B1870002302A80370A9
S2140091000D334370827000223B4B8F5CD018477043
S214009110100002AFB84640448F5CC7710132082A7F
S214009120F3D163466A46D371D379334843724246D5
S214009130D37063461B041B0E8372137163461B02B7
S2140091401B0EC372537163461B0E03739371002389
S214009150D373042242738373C4732849284B9847F9
S214009160002306A902AA9A5C5A540133102BF9D19F
S21400917027001037102F0ADD102006A9F218103A23
S21400918012780A5401339BB21800BB42F6DB230068
S21400919010331A00013529018B4207DA06AC00208D
S2140091A0A05401339BB21A008B42F9DB0022002741
S2140091B0002D15DD104E1201002306A98C189919F2
S2140091C0E25C087842400A700133102BF7D10B4955
S2140091D009480B4B98470137BFB23A00AF42EADB6B
S2140091E0002308480449CA5CC2540133102BFAD144
S2140091F046B004BC9046F0BD8C220020B071010041
S21400920065A40000D0220020F0B5DE4657464E4644
S2140092104546E0B58DB080460E0014001A00097869
S2140092200D090B0700D00135374B5B680093230010
S2140092304046364FB84731788BB22E002D01A942F2
S21400924007DA00214246D15401339BB2AB42FADB27
S2140092509046012204AB1A702B4B5868002304AAD0
S214009260D218C15C51700133082BF8D104AB5C7284
S214009270220A9A72220CDA72240E1C7304225A7383
S21400928000229A73DA73731C994600239B46039355
S2140092904B46002B2FDD08AC04AD1D4B9A461D4EE9
S2140092A017E01A5DCF5C7A40CA540133102B07D002
S2140092B00028F6D11A5D6746FF5C7A40F254F4E760
S2140092C00130E873039F0137BBB203939B464B45BF
S2140092D011DA00235A5D1A550133102BFAD10E49C4
S2140092E02000D047E87B5946013909010023414454
S2140092F00A4A9446DCE701200DB03CBC90469946ED
S214009300A246AB46F0BDC04684220020DD90000099
S21400931065A40000B8220020B0710100D022002011
S214009320084B1A78084B1B7800209A4200D07047EA
S214009330044B5878044B5B78C01A43425841C0B27D
S214009340F5E7C046B8220020E0220020F0B5DE4651
S21400935057464E464546E0B591B081460691049282
S21400936005931AAB1B78079309780A090B0700D0F8
S21400937001328BB210001201914207DA00214C46EE
S214009380E15401339BB29342FADBA146012208ABBB
S2140093901A700023049C08AAD218E15C51700133AD
S2140093A0082BF8D108AB059959720A0A9A720A0C6A
S2140093B0DA720A0E1A7304225A7300229A73DA7348
S2140093C0431C9A460025002398465346002B2EDD64
S2140093D00CAC08AE264B9B46264F43460393A84646
S2140093E014E01A5DE95C4A40EA540133102B04D0BD
S2140093F00028F6D11A5DFA54F7E70130F073039DA2
S2140094000135ABB203939846534510DA00239A5DB4
S2140094101A550133102BFAD117492000D847F07B94
S2140094204246013A120100234A441500E0E7069B33
S21400943019780439C9B21970049B0093059B079AE2
S21400944048460E4CA04700230D4D0A4C0D48E25CE2
S214009450C15C4A40EA540133102BF8D10A4B9847B6
S21400946011B03CBC90469946A246AB46F0BDC046FD
S21400947065A40000A8220020B0710100DD90000065
S214009480B8220020D02200202193000010B500282A
S21400949009D10B78192B07D8044A13701800044B0F
S2140094A09847012000E0002010BDC046F2220020B0
S2140094B0B1A3000030B583B06C4600900191104B0C
S2140094C09847104D2B0006CC06C30F4B9847040058
S2140094D001200E4B98470E4B1C7068680D4B984742
S2140094E00D4B00221A700221FF315A540B495A5470
S2140094F00B495A5401320B4B1A60012003B030BDA1
S214009500F9A20000842200204DA400002DA3000034
S2140095107921002071A40000FC2300200202000034
S21400952003030000CC220020F0B5DE4657464E4628
S2140095304546E0B587B003AF041C039008000491CD
S21400954015002D0A0592009311AB1B789A46E4B2DB
S214009550A606F60F0290D3B29C46EDB20022C44B8C
S2140095601A70C44B07CF07C3630701D501239C4677
S214009570082323401A00534253415B421D400323F5
S2140095802340012B4DD001229146002B04D09A1E79
S214009590514251414A00914603AA5289B648008872
S2140095A0904241D0002293460732E0461700083723
S2140095B06146002900D0971C002D44D00237FAB22D
S2140095C0019224221440202C41D0032B44D003AA1D
S2140095D071011378202083430B431370032213403A
S2140095E0012B41D003AB72011C7820218C4314431D
S2140095F01C70E4B2230739D410AB1B78019AD71835
S2140096009E4B1F709D4B4A465A70E3439B0740D0C3
S2140096104346002B5FD0002D45D08822974B9A708A
S21400962044E003229146B7E79548824207D040229D
S2140096304946114389463F3A93460432B5E700222D
S21400964093460732B1E70837FAB20192B9E7043A0F
S214009650494611438946B8E70125002600239B4664
S214009660994607330193B2E70026BBE708234A462C
S2140096701A439146834B1A684B4610A90098824FAE
S214009680B84710AB1B780933019AD7187B4B1F706D
S214009690B8E77A4B80229A707C490A78501C08708A
S2140096A0DA7004223EE0C822744B9A70774B1A7820
S2140096B0511C1970714BDA7003AA917A1971D27A1B
S2140096C05A71630729D402990A786C4B9A714A78C2
S2140096D0DA71082226E0002D0FD0684B8C229A7093
S2140096E06A490A78501C0870DA7003AA917A1971D0
S2140096F0D27A5A71630710D499E0604BCC229A70E4
S21400970062490A78501C0870DA7003AA917A1971B7
S214009710D27A5A71630700D485E0584BFF229A71BB
S214009720DA71F73A03A970010B782024A3430343A8
S2140097300B709B0600D485E0544B1B78013B5449C4
S2140097400B700121534B19705B46002B09D1531C3B
S214009750DBB24A49484804788C540232D2B2407888
S214009760C854002D00D171E044494B4803788B540F
S214009770931CDBB20132D2B24078885403AA71013E
S2140097801678202086430E431670320715D519002A
S21400979000223A4E3B4D481CAC5C74540132C1B2B8
S2140097A0042AF8D11A1DD2B2364801680131016088
S2140097B00533DBB200203149885410AA1678002EF3
S2140097C053D0009AF118C9B22C4D581C1478EC549A
S2140097D00132C3B28B42F8D12848304B1A78425433
S2140097E04A1CD2B25C7884548A1CD2B29C788454C8
S2140097F00331C9B2DB784354294B009A1A60294BCF
S214009800129A1A60284B52461A70284B1E70284B24
S2140098109847431E9841C0B207B03CBC9046994654
S214009820A246AB46F0BD4346002B00D04BE70023D4
S2140098301248029CE15C1A1891710133082BF9D189
S2140098400E226FE70021134B19707DE7194B5968FC
S21400985014000834E4B2094D531CDBB20878A8544F
S21400986001311A009C42F7D188E71900B4E7C046D8
S214009870860400209C220020F02200207C2100206C
S214009880FFFF0000CC220020099200007921002072
S21400989078210020830400207C220020B8220020AB
S2140098A090040020880400208C04002085040020FA
S2140098B0DDA3000084220020044B1B78032B04D871
S2140098C01A02D3180021024A995470471B00002040
S2140098D0FC2300200022044B1A70044B187001323F
S2140098E0034B1A707047C04684040020C82200202C
S2140098F08604002010B50B4A13780133DBB21370D0
S214009900022B04D90320084B9847002010BD0122E3
S214009910064B1A700648074B9847431E9841C0B23C
S214009920F4E7C04684040020D59800008304002095
S2140099307C210020DDA30000F0B5C64600B588B047
S214009940FF22CC4B1A70CC4B1B78002B00D053E375
S2140099500223FF33C84AD35C002B0ED1C74BD35C1F
S214009960002B40D1C64BD35C00240322002B05D12C
S214009970200008B004BC9046F0BD0122BD4B1A7012
S2140099800024032AF4D8100011028918BA4B5B1879
S2140099909D7840242540BB4900240C70CC73DB78AE
S2140099A033218B43D9B2882900D12EE11DD9D9B2F3
S2140099B0C8296FD0CC2900D1B9E08C2900D1AAE102
S2140099C0B14B9847AB4B1A7813029A18AA4B9B18C0
S2140099D09B7800249B06CBD507A800230370438002
S2140099E0AA4B9847C4E70222C8E7082B00D1E1E15A
S2140099F08029E5D1A34B19780424214380246442AE
S214009A00214319700121D9739B4C11028818211823
S214009A104D791D748979597411028A18D11D091956
S214009A205960015D0B391973093212199A60914B0E
S214009A301A7813029A18904B9B189B781B0700D530
S214009A40D9E18C4B1878020212188B4B9B18997828
S214009A5007230B40012B00D14DE2002B00D182E200
S214009A60022B00D185E2032B00D174E2864B984787
S214009A70804B1A7813029A187F4B9B189B78002409
S214009A809B0600D474E707A80023037043807F4B2F
S214009A9098476DE711028918774B5B18DC79FF2C25
S214009AA01ED078490E7880235B4233430B70002D1E
S214009AB000D07CE27349704C0302181823185D7AB4
S214009AC00D749B7A4B7413029A1813000B331B19F0
S214009AD04B60035D153B0B73133212198A6043E02B
S214009AE011028918644B5B181B7AFF2BD9D1654984
S214009AF00B78042423438024644223430B70002DF8
S214009B0000D063E2D6E7604B98475A4B1A781302A8
S214009B109A18594B9B189B7800249B0600D427E77D
S214009B2007A8002303704380584B984720E7554901
S214009B300C7880235B4223430B70002D32D15149B1
S214009B404D4C130298182318DD7B0D741B7C4B7448
S214009B5013029A18130011331B194B60035D1B3B4D
S214009B600B73193212198A60424B1A7813029A182C
S214009B70414B9B189B781B0700D462E7414B9B68C0
S214009B805E7836021A7816439A78120440490E40D8
S214009B901643DB781B063602360A1E433D4F00246A
S214009BA0B84640E1110289180731334A89183A4805
S214009BB03A4B9847041E15D02E4B1878314A2E493A
S214009BC003021B18C818447914748079507418005E
